{
  "_format": "hh-sol-artifact-1",
  "contractName": "GoodInfluencerManager",
  "sourceName": "contracts/GoodInfluencerManager.sol",
  "abi": [
    {
      "anonymous": false,
      "inputs": [
        {
          "indexed": true,
          "internalType": "address",
          "name": "donator",
          "type": "address"
        },
        {
          "indexed": true,
          "internalType": "address",
          "name": "receiver",
          "type": "address"
        },
        {
          "indexed": false,
          "internalType": "uint256",
          "name": "amount",
          "type": "uint256"
        }
      ],
      "name": "Donate",
      "type": "event"
    },
    {
      "anonymous": false,
      "inputs": [
        {
          "indexed": true,
          "internalType": "address",
          "name": "donator",
          "type": "address"
        },
        {
          "indexed": true,
          "internalType": "address",
          "name": "receiver",
          "type": "address"
        }
      ],
      "name": "EarnTrophy",
      "type": "event"
    },
    {
      "anonymous": false,
      "inputs": [
        {
          "indexed": false,
          "internalType": "uint8",
          "name": "version",
          "type": "uint8"
        }
      ],
      "name": "Initialized",
      "type": "event"
    },
    {
      "anonymous": false,
      "inputs": [
        {
          "indexed": true,
          "internalType": "address",
          "name": "influencer",
          "type": "address"
        },
        {
          "indexed": false,
          "internalType": "uint256",
          "name": "when",
          "type": "uint256"
        }
      ],
      "name": "RegisteringInfluencer",
      "type": "event"
    },
    {
      "anonymous": false,
      "inputs": [
        {
          "indexed": true,
          "internalType": "address",
          "name": "influencer",
          "type": "address"
        },
        {
          "indexed": false,
          "internalType": "uint256",
          "name": "amount",
          "type": "uint256"
        }
      ],
      "name": "Withdraw",
      "type": "event"
    },
    {
      "inputs": [
        {
          "internalType": "address",
          "name": "",
          "type": "address"
        }
      ],
      "name": "achievements",
      "outputs": [
        {
          "internalType": "bool",
          "name": "isEnabled",
          "type": "bool"
        },
        {
          "internalType": "uint256",
          "name": "totalDonation",
          "type": "uint256"
        }
      ],
      "stateMutability": "view",
      "type": "function"
    },
    {
      "inputs": [
        {
          "internalType": "address",
          "name": "_influencer",
          "type": "address"
        }
      ],
      "name": "donate",
      "outputs": [],
      "stateMutability": "payable",
      "type": "function"
    },
    {
      "inputs": [
        {
          "internalType": "address payable",
          "name": "_goodInfluencer",
          "type": "address"
        }
      ],
      "name": "initialize",
      "outputs": [],
      "stateMutability": "nonpayable",
      "type": "function"
    },
    {
      "inputs": [
        {
          "internalType": "address",
          "name": "_influencer",
          "type": "address"
        }
      ],
      "name": "isRegisteredInfluencer",
      "outputs": [
        {
          "internalType": "bool",
          "name": "",
          "type": "bool"
        }
      ],
      "stateMutability": "view",
      "type": "function"
    },
    {
      "inputs": [
        {
          "internalType": "address",
          "name": "_influencer",
          "type": "address"
        }
      ],
      "name": "registerInfluencer",
      "outputs": [],
      "stateMutability": "nonpayable",
      "type": "function"
    },
    {
      "inputs": [
        {
          "internalType": "uint256",
          "name": "_amount",
          "type": "uint256"
        }
      ],
      "name": "withdraw",
      "outputs": [],
      "stateMutability": "payable",
      "type": "function"
    }
  ],
  "bytecode": "0x608060405234801561001057600080fd5b5061118a806100206000396000f3fe6080604052600436106100545760003560e01c8062362a95146100595780630706a573146100755780632e1a7d4d1461009e578063531bd383146100ba578063c4d66de8146100f8578063e161049214610121575b600080fd5b610073600480360381019061006e9190610ab9565b61015e565b005b34801561008157600080fd5b5061009c60048036038101906100979190610ab9565b61039d565b005b6100b860048036038101906100b39190610b1c565b6104b6565b005b3480156100c657600080fd5b506100e160048036038101906100dc9190610ab9565b6106a4565b6040516100ef929190610b73565b60405180910390f35b34801561010457600080fd5b5061011f600480360381019061011a9190610bda565b6106d5565b005b34801561012d57600080fd5b5061014860048036038101906101439190610ab9565b61084d565b6040516101559190610c07565b60405180910390f35b80600160008273ffffffffffffffffffffffffffffffffffffffff1673ffffffffffffffffffffffffffffffffffffffff16815260200190815260200160002060000160009054906101000a900460ff166101ee576040517f08c379a00000000000000000000000000000000000000000000000000000000081526004016101e590610c7f565b60405180910390fd5b60003411610231576040517f08c379a000000000000000000000000000000000000000000000000000000000815260040161022890610ceb565b60405180910390fd5b600033905060003490506000600160008673ffffffffffffffffffffffffffffffffffffffff1673ffffffffffffffffffffffffffffffffffffffff1681526020019081526020016000209050610287856108a6565b8060010154826102979190610d3a565b81600101819055508060020160008473ffffffffffffffffffffffffffffffffffffffff1673ffffffffffffffffffffffffffffffffffffffff16815260200190815260200160002054826102ec9190610d3a565b8160020160008573ffffffffffffffffffffffffffffffffffffffff1673ffffffffffffffffffffffffffffffffffffffff168152602001908152602001600020819055508473ffffffffffffffffffffffffffffffffffffffff168373ffffffffffffffffffffffffffffffffffffffff167f88dcaca629d63d86330e97adc358b13dd0ebd703239aea96b7ea2fb331b16f4e8460405161038e9190610d6e565b60405180910390a35050505050565b8073ffffffffffffffffffffffffffffffffffffffff163373ffffffffffffffffffffffffffffffffffffffff161461040b576040517f08c379a000000000000000000000000000000000000000000000000000000000815260040161040290610dfb565b60405180910390fd5b60018060008373ffffffffffffffffffffffffffffffffffffffff1673ffffffffffffffffffffffffffffffffffffffff16815260200190815260200160002060000160006101000a81548160ff0219169083151502179055508073ffffffffffffffffffffffffffffffffffffffff167fba0c7bdd8f75dce896111053817a380864a92cc2c7254b89db81eb909cf053c3426040516104ab9190610d6e565b60405180910390a250565b6000600160003373ffffffffffffffffffffffffffffffffffffffff1673ffffffffffffffffffffffffffffffffffffffff16815260200190815260200160002060010154905060008111801561050d5750818110155b61054c576040517f08c379a000000000000000000000000000000000000000000000000000000000815260040161054390610e8d565b60405180910390fd5b81600160003373ffffffffffffffffffffffffffffffffffffffff1673ffffffffffffffffffffffffffffffffffffffff168152602001908152602001600020600101600082825461059e9190610ead565b9250508190555060003373ffffffffffffffffffffffffffffffffffffffff16836040516105cb90610f12565b60006040518083038185875af1925050503d8060008114610608576040519150601f19603f3d011682016040523d82523d6000602084013e61060d565b606091505b505090503373ffffffffffffffffffffffffffffffffffffffff167f884edad9ce6fa2440d8a54cc123490eb96d2768479d49ff9c7366125a9424364846040516106579190610d6e565b60405180910390a28061069f576040517f08c379a000000000000000000000000000000000000000000000000000000000815260040161069690610f73565b60405180910390fd5b505050565b60016020528060005260406000206000915090508060000160009054906101000a900460ff16908060010154905082565b60008060019054906101000a900460ff161590508080156107065750600160008054906101000a900460ff1660ff16105b80610733575061071530610a33565b1580156107325750600160008054906101000a900460ff1660ff16145b5b610772576040517f08c379a000000000000000000000000000000000000000000000000000000000815260040161076990611005565b60405180910390fd5b60016000806101000a81548160ff021916908360ff16021790555080156107af576001600060016101000a81548160ff0219169083151502179055505b81600060026101000a81548173ffffffffffffffffffffffffffffffffffffffff021916908373ffffffffffffffffffffffffffffffffffffffff16021790555080156108495760008060016101000a81548160ff0219169083151502179055507f7f26b83ff96e1f2b6a682f133852f6798a09c465da95921460cefb384740249860016040516108409190611077565b60405180910390a15b5050565b6000600160008373ffffffffffffffffffffffffffffffffffffffff1673ffffffffffffffffffffffffffffffffffffffff16815260200190815260200160002060000160009054906101000a900460ff169050919050565b6000600160008373ffffffffffffffffffffffffffffffffffffffff1673ffffffffffffffffffffffffffffffffffffffff16815260200190815260200160002060020160003373ffffffffffffffffffffffffffffffffffffffff1673ffffffffffffffffffffffffffffffffffffffff16815260200190815260200160002054905060008103610a2f57600060029054906101000a900473ffffffffffffffffffffffffffffffffffffffff1673ffffffffffffffffffffffffffffffffffffffff1663a9059cbb8360016040518363ffffffff1660e01b81526004016109909291906110d2565b6020604051808303816000875af11580156109af573d6000803e3d6000fd5b505050506040513d601f19601f820116820180604052508101906109d39190611127565b508173ffffffffffffffffffffffffffffffffffffffff163373ffffffffffffffffffffffffffffffffffffffff167f257847d0a42f3662dec3d908955f3e02f6c37868ea1bb72fd3724f2e8b95da6f60405160405180910390a35b5050565b6000808273ffffffffffffffffffffffffffffffffffffffff163b119050919050565b600080fd5b600073ffffffffffffffffffffffffffffffffffffffff82169050919050565b6000610a8682610a5b565b9050919050565b610a9681610a7b565b8114610aa157600080fd5b50565b600081359050610ab381610a8d565b92915050565b600060208284031215610acf57610ace610a56565b5b6000610add84828501610aa4565b91505092915050565b6000819050919050565b610af981610ae6565b8114610b0457600080fd5b50565b600081359050610b1681610af0565b92915050565b600060208284031215610b3257610b31610a56565b5b6000610b4084828501610b07565b91505092915050565b60008115159050919050565b610b5e81610b49565b82525050565b610b6d81610ae6565b82525050565b6000604082019050610b886000830185610b55565b610b956020830184610b64565b9392505050565b6000610ba782610a5b565b9050919050565b610bb781610b9c565b8114610bc257600080fd5b50565b600081359050610bd481610bae565b92915050565b600060208284031215610bf057610bef610a56565b5b6000610bfe84828501610bc5565b91505092915050565b6000602082019050610c1c6000830184610b55565b92915050565b600082825260208201905092915050565b7f4f6e6c7920666f72207265676973746572656420616464726573732e00000000600082015250565b6000610c69601c83610c22565b9150610c7482610c33565b602082019050919050565b60006020820190508181036000830152610c9881610c5c565b9050919050565b7f4d696e696d756d204554482069732072657175697265642e0000000000000000600082015250565b6000610cd5601883610c22565b9150610ce082610c9f565b602082019050919050565b60006020820190508181036000830152610d0481610cc8565b9050919050565b7f4e487b7100000000000000000000000000000000000000000000000000000000600052601160045260246000fd5b6000610d4582610ae6565b9150610d5083610ae6565b9250828201905080821115610d6857610d67610d0b565b5b92915050565b6000602082019050610d836000830184610b64565b92915050565b7f4f6e6c7920696e666c75656e63657273207468656d73656c7665732063616e2060008201527f72656769737465722e0000000000000000000000000000000000000000000000602082015250565b6000610de5602983610c22565b9150610df082610d89565b604082019050919050565b60006020820190508181036000830152610e1481610dd8565b9050919050565b7f596f752063616e6e6f742077697468647261772067726561746572207468616e60008201527f20796f7520686176652e00000000000000000000000000000000000000000000602082015250565b6000610e77602a83610c22565b9150610e8282610e1b565b604082019050919050565b60006020820190508181036000830152610ea681610e6a565b9050919050565b6000610eb882610ae6565b9150610ec383610ae6565b9250828203905081811115610edb57610eda610d0b565b5b92915050565b600081905092915050565b50565b6000610efc600083610ee1565b9150610f0782610eec565b600082019050919050565b6000610f1d82610eef565b9150819050919050565b7f5769746864726177206661696c65642e00000000000000000000000000000000600082015250565b6000610f5d601083610c22565b9150610f6882610f27565b602082019050919050565b60006020820190508181036000830152610f8c81610f50565b9050919050565b7f496e697469616c697a61626c653a20636f6e747261637420697320616c72656160008201527f647920696e697469616c697a6564000000000000000000000000000000000000602082015250565b6000610fef602e83610c22565b9150610ffa82610f93565b604082019050919050565b6000602082019050818103600083015261101e81610fe2565b9050919050565b6000819050919050565b600060ff82169050919050565b6000819050919050565b600061106161105c61105784611025565b61103c565b61102f565b9050919050565b61107181611046565b82525050565b600060208201905061108c6000830184611068565b92915050565b61109b81610a7b565b82525050565b60006110bc6110b76110b284611025565b61103c565b610ae6565b9050919050565b6110cc816110a1565b82525050565b60006040820190506110e76000830185611092565b6110f460208301846110c3565b9392505050565b61110481610b49565b811461110f57600080fd5b50565b600081519050611121816110fb565b92915050565b60006020828403121561113d5761113c610a56565b5b600061114b84828501611112565b9150509291505056fea264697066735822122076865579190bf9d11891edb6ecaad8db8d3e481e3a18820bffdee68d2cef5d3764736f6c63430008130033",
  "linkReferences": {},
  "deployedLinkReferences": {}
}