{
  "_format": "hh-sol-artifact-1",
  "contractName": "GoodInfluencerManager",
  "sourceName": "contracts/GoodInfluencerManager.sol",
  "abi": [
    {
      "anonymous": false,
      "inputs": [
        {
          "indexed": true,
          "internalType": "address",
          "name": "donator",
          "type": "address"
        },
        {
          "indexed": true,
          "internalType": "address",
          "name": "receiver",
          "type": "address"
        },
        {
          "indexed": false,
          "internalType": "uint256",
          "name": "amount",
          "type": "uint256"
        }
      ],
      "name": "Donate",
      "type": "event"
    },
    {
      "anonymous": false,
      "inputs": [
        {
          "indexed": true,
          "internalType": "address",
          "name": "donator",
          "type": "address"
        },
        {
          "indexed": true,
          "internalType": "address",
          "name": "receiver",
          "type": "address"
        }
      ],
      "name": "EarnTrophy",
      "type": "event"
    },
    {
      "anonymous": false,
      "inputs": [
        {
          "indexed": false,
          "internalType": "uint8",
          "name": "version",
          "type": "uint8"
        }
      ],
      "name": "Initialized",
      "type": "event"
    },
    {
      "anonymous": false,
      "inputs": [
        {
          "indexed": true,
          "internalType": "address",
          "name": "influencer",
          "type": "address"
        },
        {
          "indexed": false,
          "internalType": "uint256",
          "name": "when",
          "type": "uint256"
        }
      ],
      "name": "RegisteringInfluencer",
      "type": "event"
    },
    {
      "anonymous": false,
      "inputs": [
        {
          "indexed": true,
          "internalType": "address",
          "name": "influencer",
          "type": "address"
        },
        {
          "indexed": false,
          "internalType": "uint256",
          "name": "amount",
          "type": "uint256"
        }
      ],
      "name": "Withdraw",
      "type": "event"
    },
    {
      "inputs": [
        {
          "internalType": "address",
          "name": "",
          "type": "address"
        }
      ],
      "name": "achievements",
      "outputs": [
        {
          "internalType": "bool",
          "name": "isEnabled",
          "type": "bool"
        },
        {
          "internalType": "uint256",
          "name": "totalDonation",
          "type": "uint256"
        }
      ],
      "stateMutability": "view",
      "type": "function"
    },
    {
      "inputs": [
        {
          "internalType": "address",
          "name": "_influencer",
          "type": "address"
        }
      ],
      "name": "donate",
      "outputs": [],
      "stateMutability": "payable",
      "type": "function"
    },
    {
      "inputs": [
        {
          "internalType": "address payable",
          "name": "_goodInfluencer",
          "type": "address"
        }
      ],
      "name": "initialize",
      "outputs": [],
      "stateMutability": "nonpayable",
      "type": "function"
    },
    {
      "inputs": [
        {
          "internalType": "address",
          "name": "_influencer",
          "type": "address"
        }
      ],
      "name": "isRegisteredInfluencer",
      "outputs": [
        {
          "internalType": "bool",
          "name": "",
          "type": "bool"
        }
      ],
      "stateMutability": "view",
      "type": "function"
    },
    {
      "inputs": [
        {
          "internalType": "address",
          "name": "_influencer",
          "type": "address"
        }
      ],
      "name": "registerInfluencer",
      "outputs": [],
      "stateMutability": "nonpayable",
      "type": "function"
    },
    {
      "inputs": [
        {
          "internalType": "uint256",
          "name": "_amount",
          "type": "uint256"
        }
      ],
      "name": "withdraw",
      "outputs": [],
      "stateMutability": "payable",
      "type": "function"
    }
  ],
  "bytecode": "0x608060405234801561001057600080fd5b5061141c806100206000396000f3fe6080604052600436106100545760003560e01c8062362a95146100595780630706a573146100755780632e1a7d4d1461009e578063531bd383146100ba578063c4d66de8146100f8578063e161049214610121575b600080fd5b610073600480360381019061006e9190610bbb565b61015e565b005b34801561008157600080fd5b5061009c60048036038101906100979190610bbb565b61040b565b005b6100b860048036038101906100b39190610c1e565b61056e565b005b3480156100c657600080fd5b506100e160048036038101906100dc9190610bbb565b6107a6565b6040516100ef929190610c75565b60405180910390f35b34801561010457600080fd5b5061011f600480360381019061011a9190610cdc565b6107d7565b005b34801561012d57600080fd5b5061014860048036038101906101439190610bbb565b61094f565b6040516101559190610d09565b60405180910390f35b80600160008273ffffffffffffffffffffffffffffffffffffffff1673ffffffffffffffffffffffffffffffffffffffff16815260200190815260200160002060000160009054906101000a900460ff166101ee576040517f08c379a00000000000000000000000000000000000000000000000000000000081526004016101e590610d81565b60405180910390fd5b60003411610231576040517f08c379a000000000000000000000000000000000000000000000000000000000815260040161022890610ded565b60405180910390fd5b600033905060003490508373ffffffffffffffffffffffffffffffffffffffff168273ffffffffffffffffffffffffffffffffffffffff16036102a9576040517f08c379a00000000000000000000000000000000000000000000000000000000081526004016102a090610e59565b60405180910390fd5b6000600160008673ffffffffffffffffffffffffffffffffffffffff1673ffffffffffffffffffffffffffffffffffffffff16815260200190815260200160002090506102f5856109a8565b8060010154826103059190610ea8565b81600101819055508060020160008473ffffffffffffffffffffffffffffffffffffffff1673ffffffffffffffffffffffffffffffffffffffff168152602001908152602001600020548261035a9190610ea8565b8160020160008573ffffffffffffffffffffffffffffffffffffffff1673ffffffffffffffffffffffffffffffffffffffff168152602001908152602001600020819055508473ffffffffffffffffffffffffffffffffffffffff168373ffffffffffffffffffffffffffffffffffffffff167f88dcaca629d63d86330e97adc358b13dd0ebd703239aea96b7ea2fb331b16f4e846040516103fc9190610edc565b60405180910390a35050505050565b8073ffffffffffffffffffffffffffffffffffffffff163373ffffffffffffffffffffffffffffffffffffffff1614610479576040517f08c379a000000000000000000000000000000000000000000000000000000000815260040161047090610f69565b60405180910390fd5b600080823b11905080156104c2576040517f08c379a00000000000000000000000000000000000000000000000000000000081526004016104b990610ffb565b60405180910390fd5b60018060008473ffffffffffffffffffffffffffffffffffffffff1673ffffffffffffffffffffffffffffffffffffffff16815260200190815260200160002060000160006101000a81548160ff0219169083151502179055508173ffffffffffffffffffffffffffffffffffffffff167fba0c7bdd8f75dce896111053817a380864a92cc2c7254b89db81eb909cf053c3426040516105629190610edc565b60405180910390a25050565b600080333b11905080156105b7576040517f08c379a00000000000000000000000000000000000000000000000000000000081526004016105ae9061108d565b60405180910390fd5b6000600160003373ffffffffffffffffffffffffffffffffffffffff1673ffffffffffffffffffffffffffffffffffffffff16815260200190815260200160002060010154905060008111801561060e5750828110155b61064d576040517f08c379a00000000000000000000000000000000000000000000000000000000081526004016106449061111f565b60405180910390fd5b82600160003373ffffffffffffffffffffffffffffffffffffffff1673ffffffffffffffffffffffffffffffffffffffff168152602001908152602001600020600101600082825461069f919061113f565b9250508190555060003373ffffffffffffffffffffffffffffffffffffffff16846040516106cc906111a4565b60006040518083038185875af1925050503d8060008114610709576040519150601f19603f3d011682016040523d82523d6000602084013e61070e565b606091505b505090503373ffffffffffffffffffffffffffffffffffffffff167f884edad9ce6fa2440d8a54cc123490eb96d2768479d49ff9c7366125a9424364856040516107589190610edc565b60405180910390a2806107a0576040517f08c379a000000000000000000000000000000000000000000000000000000000815260040161079790611205565b60405180910390fd5b50505050565b60016020528060005260406000206000915090508060000160009054906101000a900460ff16908060010154905082565b60008060019054906101000a900460ff161590508080156108085750600160008054906101000a900460ff1660ff16105b80610835575061081730610b35565b1580156108345750600160008054906101000a900460ff1660ff16145b5b610874576040517f08c379a000000000000000000000000000000000000000000000000000000000815260040161086b90611297565b60405180910390fd5b60016000806101000a81548160ff021916908360ff16021790555080156108b1576001600060016101000a81548160ff0219169083151502179055505b81600060026101000a81548173ffffffffffffffffffffffffffffffffffffffff021916908373ffffffffffffffffffffffffffffffffffffffff160217905550801561094b5760008060016101000a81548160ff0219169083151502179055507f7f26b83ff96e1f2b6a682f133852f6798a09c465da95921460cefb384740249860016040516109429190611309565b60405180910390a15b5050565b6000600160008373ffffffffffffffffffffffffffffffffffffffff1673ffffffffffffffffffffffffffffffffffffffff16815260200190815260200160002060000160009054906101000a900460ff169050919050565b6000600160008373ffffffffffffffffffffffffffffffffffffffff1673ffffffffffffffffffffffffffffffffffffffff16815260200190815260200160002060020160003373ffffffffffffffffffffffffffffffffffffffff1673ffffffffffffffffffffffffffffffffffffffff16815260200190815260200160002054905060008103610b3157600060029054906101000a900473ffffffffffffffffffffffffffffffffffffffff1673ffffffffffffffffffffffffffffffffffffffff1663a9059cbb8360016040518363ffffffff1660e01b8152600401610a92929190611364565b6020604051808303816000875af1158015610ab1573d6000803e3d6000fd5b505050506040513d601f19601f82011682018060405250810190610ad591906113b9565b508173ffffffffffffffffffffffffffffffffffffffff163373ffffffffffffffffffffffffffffffffffffffff167f257847d0a42f3662dec3d908955f3e02f6c37868ea1bb72fd3724f2e8b95da6f60405160405180910390a35b5050565b6000808273ffffffffffffffffffffffffffffffffffffffff163b119050919050565b600080fd5b600073ffffffffffffffffffffffffffffffffffffffff82169050919050565b6000610b8882610b5d565b9050919050565b610b9881610b7d565b8114610ba357600080fd5b50565b600081359050610bb581610b8f565b92915050565b600060208284031215610bd157610bd0610b58565b5b6000610bdf84828501610ba6565b91505092915050565b6000819050919050565b610bfb81610be8565b8114610c0657600080fd5b50565b600081359050610c1881610bf2565b92915050565b600060208284031215610c3457610c33610b58565b5b6000610c4284828501610c09565b91505092915050565b60008115159050919050565b610c6081610c4b565b82525050565b610c6f81610be8565b82525050565b6000604082019050610c8a6000830185610c57565b610c976020830184610c66565b9392505050565b6000610ca982610b5d565b9050919050565b610cb981610c9e565b8114610cc457600080fd5b50565b600081359050610cd681610cb0565b92915050565b600060208284031215610cf257610cf1610b58565b5b6000610d0084828501610cc7565b91505092915050565b6000602082019050610d1e6000830184610c57565b92915050565b600082825260208201905092915050565b7f4f6e6c7920666f72207265676973746572656420616464726573732e00000000600082015250565b6000610d6b601c83610d24565b9150610d7682610d35565b602082019050919050565b60006020820190508181036000830152610d9a81610d5e565b9050919050565b7f4d696e696d756d204554482069732072657175697265642e0000000000000000600082015250565b6000610dd7601883610d24565b9150610de282610da1565b602082019050919050565b60006020820190508181036000830152610e0681610dca565b9050919050565b7f596f752063616e6e6f7420646f6e61746520796f7573656c662e000000000000600082015250565b6000610e43601a83610d24565b9150610e4e82610e0d565b602082019050919050565b60006020820190508181036000830152610e7281610e36565b9050919050565b7f4e487b7100000000000000000000000000000000000000000000000000000000600052601160045260246000fd5b6000610eb382610be8565b9150610ebe83610be8565b9250828201905080821115610ed657610ed5610e79565b5b92915050565b6000602082019050610ef16000830184610c66565b92915050565b7f4f6e6c7920696e666c75656e63657273207468656d73656c7665732063616e2060008201527f72656769737465722e0000000000000000000000000000000000000000000000602082015250565b6000610f53602983610d24565b9150610f5e82610ef7565b604082019050919050565b60006020820190508181036000830152610f8281610f46565b9050919050565b7f4120636f6e7472616374206973206e6f7420616c6c6f77656420617320696e6660008201527f6c75656e6365722e000000000000000000000000000000000000000000000000602082015250565b6000610fe5602883610d24565b9150610ff082610f89565b604082019050919050565b6000602082019050818103600083015261101481610fd8565b9050919050565b7f4120636f6e7472616374206973206e6f7420616c6c6f77656420746f2077697460008201527f68647261772e0000000000000000000000000000000000000000000000000000602082015250565b6000611077602683610d24565b91506110828261101b565b604082019050919050565b600060208201905081810360008301526110a68161106a565b9050919050565b7f596f752063616e6e6f742077697468647261772067726561746572207468616e60008201527f20796f7520686176652e00000000000000000000000000000000000000000000602082015250565b6000611109602a83610d24565b9150611114826110ad565b604082019050919050565b60006020820190508181036000830152611138816110fc565b9050919050565b600061114a82610be8565b915061115583610be8565b925082820390508181111561116d5761116c610e79565b5b92915050565b600081905092915050565b50565b600061118e600083611173565b91506111998261117e565b600082019050919050565b60006111af82611181565b9150819050919050565b7f5769746864726177206661696c65642e00000000000000000000000000000000600082015250565b60006111ef601083610d24565b91506111fa826111b9565b602082019050919050565b6000602082019050818103600083015261121e816111e2565b9050919050565b7f496e697469616c697a61626c653a20636f6e747261637420697320616c72656160008201527f647920696e697469616c697a6564000000000000000000000000000000000000602082015250565b6000611281602e83610d24565b915061128c82611225565b604082019050919050565b600060208201905081810360008301526112b081611274565b9050919050565b6000819050919050565b600060ff82169050919050565b6000819050919050565b60006112f36112ee6112e9846112b7565b6112ce565b6112c1565b9050919050565b611303816112d8565b82525050565b600060208201905061131e60008301846112fa565b92915050565b61132d81610b7d565b82525050565b600061134e611349611344846112b7565b6112ce565b610be8565b9050919050565b61135e81611333565b82525050565b60006040820190506113796000830185611324565b6113866020830184611355565b9392505050565b61139681610c4b565b81146113a157600080fd5b50565b6000815190506113b38161138d565b92915050565b6000602082840312156113cf576113ce610b58565b5b60006113dd848285016113a4565b9150509291505056fea2646970667358221220d69aeb52d65011691d31a367c84792f6ab03373ebf64a45497d234d87ab7b40564736f6c63430008130033",
  "linkReferences": {},
  "deployedLinkReferences": {}
}